{
  "contractName": "ERC20Mock",
  "abi": [
    {
      "inputs": [
        {
          "internalType": "string",
          "name": "name",
          "type": "string"
        },
        {
          "internalType": "string",
          "name": "symbol",
          "type": "string"
        },
        {
          "internalType": "address",
          "name": "initialAccount",
          "type": "address"
        },
        {
          "internalType": "uint256",
          "name": "initialBalance",
          "type": "uint256"
        }
      ],
      "stateMutability": "payable",
      "type": "constructor"
    },
    {
      "anonymous": false,
      "inputs": [
        {
          "indexed": true,
          "internalType": "address",
          "name": "owner",
          "type": "address"
        },
        {
          "indexed": true,
          "internalType": "address",
          "name": "spender",
          "type": "address"
        },
        {
          "indexed": false,
          "internalType": "uint256",
          "name": "value",
          "type": "uint256"
        }
      ],
      "name": "Approval",
      "type": "event"
    },
    {
      "anonymous": false,
      "inputs": [
        {
          "indexed": true,
          "internalType": "address",
          "name": "from",
          "type": "address"
        },
        {
          "indexed": true,
          "internalType": "address",
          "name": "to",
          "type": "address"
        },
        {
          "indexed": false,
          "internalType": "uint256",
          "name": "value",
          "type": "uint256"
        }
      ],
      "name": "Transfer",
      "type": "event"
    },
    {
      "inputs": [
        {
          "internalType": "address",
          "name": "owner",
          "type": "address"
        },
        {
          "internalType": "address",
          "name": "spender",
          "type": "address"
        }
      ],
      "name": "allowance",
      "outputs": [
        {
          "internalType": "uint256",
          "name": "",
          "type": "uint256"
        }
      ],
      "stateMutability": "view",
      "type": "function"
    },
    {
      "inputs": [
        {
          "internalType": "address",
          "name": "spender",
          "type": "address"
        },
        {
          "internalType": "uint256",
          "name": "amount",
          "type": "uint256"
        }
      ],
      "name": "approve",
      "outputs": [
        {
          "internalType": "bool",
          "name": "",
          "type": "bool"
        }
      ],
      "stateMutability": "nonpayable",
      "type": "function"
    },
    {
      "inputs": [
        {
          "internalType": "address",
          "name": "account",
          "type": "address"
        }
      ],
      "name": "balanceOf",
      "outputs": [
        {
          "internalType": "uint256",
          "name": "",
          "type": "uint256"
        }
      ],
      "stateMutability": "view",
      "type": "function"
    },
    {
      "inputs": [],
      "name": "decimals",
      "outputs": [
        {
          "internalType": "uint8",
          "name": "",
          "type": "uint8"
        }
      ],
      "stateMutability": "view",
      "type": "function"
    },
    {
      "inputs": [
        {
          "internalType": "address",
          "name": "spender",
          "type": "address"
        },
        {
          "internalType": "uint256",
          "name": "subtractedValue",
          "type": "uint256"
        }
      ],
      "name": "decreaseAllowance",
      "outputs": [
        {
          "internalType": "bool",
          "name": "",
          "type": "bool"
        }
      ],
      "stateMutability": "nonpayable",
      "type": "function"
    },
    {
      "inputs": [
        {
          "internalType": "address",
          "name": "spender",
          "type": "address"
        },
        {
          "internalType": "uint256",
          "name": "addedValue",
          "type": "uint256"
        }
      ],
      "name": "increaseAllowance",
      "outputs": [
        {
          "internalType": "bool",
          "name": "",
          "type": "bool"
        }
      ],
      "stateMutability": "nonpayable",
      "type": "function"
    },
    {
      "inputs": [],
      "name": "name",
      "outputs": [
        {
          "internalType": "string",
          "name": "",
          "type": "string"
        }
      ],
      "stateMutability": "view",
      "type": "function"
    },
    {
      "inputs": [],
      "name": "symbol",
      "outputs": [
        {
          "internalType": "string",
          "name": "",
          "type": "string"
        }
      ],
      "stateMutability": "view",
      "type": "function"
    },
    {
      "inputs": [],
      "name": "totalSupply",
      "outputs": [
        {
          "internalType": "uint256",
          "name": "",
          "type": "uint256"
        }
      ],
      "stateMutability": "view",
      "type": "function"
    },
    {
      "inputs": [
        {
          "internalType": "address",
          "name": "recipient",
          "type": "address"
        },
        {
          "internalType": "uint256",
          "name": "amount",
          "type": "uint256"
        }
      ],
      "name": "transfer",
      "outputs": [
        {
          "internalType": "bool",
          "name": "",
          "type": "bool"
        }
      ],
      "stateMutability": "nonpayable",
      "type": "function"
    },
    {
      "inputs": [
        {
          "internalType": "address",
          "name": "sender",
          "type": "address"
        },
        {
          "internalType": "address",
          "name": "recipient",
          "type": "address"
        },
        {
          "internalType": "uint256",
          "name": "amount",
          "type": "uint256"
        }
      ],
      "name": "transferFrom",
      "outputs": [
        {
          "internalType": "bool",
          "name": "",
          "type": "bool"
        }
      ],
      "stateMutability": "nonpayable",
      "type": "function"
    },
    {
      "inputs": [
        {
          "internalType": "address",
          "name": "account",
          "type": "address"
        },
        {
          "internalType": "uint256",
          "name": "amount",
          "type": "uint256"
        }
      ],
      "name": "mint",
      "outputs": [],
      "stateMutability": "nonpayable",
      "type": "function"
    },
    {
      "inputs": [
        {
          "internalType": "address",
          "name": "account",
          "type": "address"
        },
        {
          "internalType": "uint256",
          "name": "amount",
          "type": "uint256"
        }
      ],
      "name": "burn",
      "outputs": [],
      "stateMutability": "nonpayable",
      "type": "function"
    },
    {
      "inputs": [
        {
          "internalType": "address",
          "name": "from",
          "type": "address"
        },
        {
          "internalType": "address",
          "name": "to",
          "type": "address"
        },
        {
          "internalType": "uint256",
          "name": "value",
          "type": "uint256"
        }
      ],
      "name": "transferInternal",
      "outputs": [],
      "stateMutability": "nonpayable",
      "type": "function"
    },
    {
      "inputs": [
        {
          "internalType": "address",
          "name": "owner",
          "type": "address"
        },
        {
          "internalType": "address",
          "name": "spender",
          "type": "address"
        },
        {
          "internalType": "uint256",
          "name": "value",
          "type": "uint256"
        }
      ],
      "name": "approveInternal",
      "outputs": [],
      "stateMutability": "nonpayable",
      "type": "function"
    }
  ],
  "bytecode": "0x60806040526040516200111c3803806200111c8339810160408190526200002691620002ac565b8351849084906200003f9060039060208501906200015b565b508051620000559060049060208401906200015b565b5050506200006a82826200007460201b60201c565b50505050620003f3565b6001600160a01b038216620000a65760405162461bcd60e51b81526004016200009d906200033b565b60405180910390fd5b620000b46000838362000156565b8060026000828254620000c891906200037b565b90915550506001600160a01b03821660009081526020819052604081208054839290620000f79084906200037b565b90915550506040516001600160a01b038316906000907fddf252ad1be2c89b69c2b068fc378daa952ba7f163c4a11628f55a4df523b3ef906200013c90859062000372565b60405180910390a3620001526000838362000156565b5050565b505050565b8280546200016990620003a0565b90600052602060002090601f0160209004810192826200018d5760008555620001d8565b82601f10620001a857805160ff1916838001178555620001d8565b82800160010185558215620001d8579182015b82811115620001d8578251825591602001919060010190620001bb565b50620001e6929150620001ea565b5090565b5b80821115620001e65760008155600101620001eb565b600082601f83011262000212578081fd5b81516001600160401b03808211156200022f576200022f620003dd565b6040516020601f8401601f1916820181018381118382101715620002575762000257620003dd565b60405283825285840181018710156200026e578485fd5b8492505b8383101562000291578583018101518284018201529182019162000272565b83831115620002a257848185840101525b5095945050505050565b60008060008060808587031215620002c2578384fd5b84516001600160401b0380821115620002d9578586fd5b620002e78883890162000201565b95506020870151915080821115620002fd578485fd5b506200030c8782880162000201565b604087015190945090506001600160a01b03811681146200032b578283fd5b6060959095015193969295505050565b6020808252601f908201527f45524332303a206d696e7420746f20746865207a65726f206164647265737300604082015260600190565b90815260200190565b600082198211156200039b57634e487b7160e01b81526011600452602481fd5b500190565b600281046001821680620003b557607f821691505b60208210811415620003d757634e487b7160e01b600052602260045260246000fd5b50919050565b634e487b7160e01b600052604160045260246000fd5b610d1980620004036000396000f3fe608060405234801561001057600080fd5b50600436106100f55760003560e01c806340c10f19116100975780639dc29fac116100665780639dc29fac146101de578063a457c2d7146101f1578063a9059cbb14610204578063dd62ed3e14610217576100f5565b806340c10f191461019d57806356189cb4146101b057806370a08231146101c357806395d89b41146101d6576100f5565b8063222f5be0116100d3578063222f5be01461014d57806323b872dd14610162578063313ce56714610175578063395093511461018a576100f5565b806306fdde03146100fa578063095ea7b31461011857806318160ddd14610138575b600080fd5b61010261022a565b60405161010f919061095e565b60405180910390f35b61012b61012636600461092a565b6102bc565b60405161010f9190610953565b6101406102d9565b60405161010f9190610c4c565b61016061015b3660046108ef565b6102df565b005b61012b6101703660046108ef565b6102ef565b61017d610388565b60405161010f9190610c55565b61012b61019836600461092a565b61038d565b6101606101ab36600461092a565b6103e1565b6101606101be3660046108ef565b6103ef565b6101406101d136600461089c565b6103fa565b610102610419565b6101606101ec36600461092a565b610428565b61012b6101ff36600461092a565b610432565b61012b61021236600461092a565b6104ab565b6101406102253660046108bd565b6104bf565b60606003805461023990610c92565b80601f016020809104026020016040519081016040528092919081815260200182805461026590610c92565b80156102b25780601f10610287576101008083540402835291602001916102b2565b820191906000526020600020905b81548152906001019060200180831161029557829003601f168201915b5050505050905090565b60006102d06102c96104ea565b84846104ee565b50600192915050565b60025490565b6102ea8383836105a2565b505050565b60006102fc8484846105a2565b6001600160a01b03841660009081526001602052604081208161031d6104ea565b6001600160a01b03166001600160a01b03168152602001908152602001600020549050828110156103695760405162461bcd60e51b815260040161036090610abe565b60405180910390fd5b61037d856103756104ea565b8584036104ee565b506001949350505050565b601290565b60006102d061039a6104ea565b8484600160006103a86104ea565b6001600160a01b03908116825260208083019390935260409182016000908120918b16815292529020546103dc9190610c63565b6104ee565b6103eb82826106cc565b5050565b6102ea8383836104ee565b6001600160a01b0381166000908152602081905260409020545b919050565b60606004805461023990610c92565b6103eb8282610794565b600080600160006104416104ea565b6001600160a01b039081168252602080830193909352604091820160009081209188168152925290205490508281101561048d5760405162461bcd60e51b815260040161036090610bd0565b6104a16104986104ea565b858584036104ee565b5060019392505050565b60006102d06104b86104ea565b84846105a2565b6001600160a01b03918216600090815260016020908152604080832093909416825291909152205490565b3390565b6001600160a01b0383166105145760405162461bcd60e51b815260040161036090610b8c565b6001600160a01b03821661053a5760405162461bcd60e51b815260040161036090610a36565b6001600160a01b0380841660008181526001602090815260408083209487168084529490915290819020849055517f8c5be1e5ebec7d5bd14f71427d1e84f3dd0314c0f7b2291e5b200ac8c7c3b92590610595908590610c4c565b60405180910390a3505050565b6001600160a01b0383166105c85760405162461bcd60e51b815260040161036090610b47565b6001600160a01b0382166105ee5760405162461bcd60e51b8152600401610360906109b1565b6105f98383836102ea565b6001600160a01b038316600090815260208190526040902054818110156106325760405162461bcd60e51b815260040161036090610a78565b6001600160a01b03808516600090815260208190526040808220858503905591851681529081208054849290610669908490610c63565b92505081905550826001600160a01b0316846001600160a01b03167fddf252ad1be2c89b69c2b068fc378daa952ba7f163c4a11628f55a4df523b3ef846040516106b39190610c4c565b60405180910390a36106c68484846102ea565b50505050565b6001600160a01b0382166106f25760405162461bcd60e51b815260040161036090610c15565b6106fe600083836102ea565b80600260008282546107109190610c63565b90915550506001600160a01b0382166000908152602081905260408120805483929061073d908490610c63565b90915550506040516001600160a01b038316906000907fddf252ad1be2c89b69c2b068fc378daa952ba7f163c4a11628f55a4df523b3ef90610780908590610c4c565b60405180910390a36103eb600083836102ea565b6001600160a01b0382166107ba5760405162461bcd60e51b815260040161036090610b06565b6107c6826000836102ea565b6001600160a01b038216600090815260208190526040902054818110156107ff5760405162461bcd60e51b8152600401610360906109f4565b6001600160a01b038316600090815260208190526040812083830390556002805484929061082e908490610c7b565b90915550506040516000906001600160a01b038516907fddf252ad1be2c89b69c2b068fc378daa952ba7f163c4a11628f55a4df523b3ef90610871908690610c4c565b60405180910390a36102ea836000846102ea565b80356001600160a01b038116811461041457600080fd5b6000602082840312156108ad578081fd5b6108b682610885565b9392505050565b600080604083850312156108cf578081fd5b6108d883610885565b91506108e660208401610885565b90509250929050565b600080600060608486031215610903578081fd5b61090c84610885565b925061091a60208501610885565b9150604084013590509250925092565b6000806040838503121561093c578182fd5b61094583610885565b946020939093013593505050565b901515815260200190565b6000602080835283518082850152825b8181101561098a5785810183015185820160400152820161096e565b8181111561099b5783604083870101525b50601f01601f1916929092016040019392505050565b60208082526023908201527f45524332303a207472616e7366657220746f20746865207a65726f206164647260408201526265737360e81b606082015260800190565b60208082526022908201527f45524332303a206275726e20616d6f756e7420657863656564732062616c616e604082015261636560f01b606082015260800190565b60208082526022908201527f45524332303a20617070726f766520746f20746865207a65726f206164647265604082015261737360f01b606082015260800190565b60208082526026908201527f45524332303a207472616e7366657220616d6f756e7420657863656564732062604082015265616c616e636560d01b606082015260800190565b60208082526028908201527f45524332303a207472616e7366657220616d6f756e74206578636565647320616040820152676c6c6f77616e636560c01b606082015260800190565b60208082526021908201527f45524332303a206275726e2066726f6d20746865207a65726f206164647265736040820152607360f81b606082015260800190565b60208082526025908201527f45524332303a207472616e736665722066726f6d20746865207a65726f206164604082015264647265737360d81b606082015260800190565b60208082526024908201527f45524332303a20617070726f76652066726f6d20746865207a65726f206164646040820152637265737360e01b606082015260800190565b60208082526025908201527f45524332303a2064656372656173656420616c6c6f77616e63652062656c6f77604082015264207a65726f60d81b606082015260800190565b6020808252601f908201527f45524332303a206d696e7420746f20746865207a65726f206164647265737300604082015260600190565b90815260200190565b60ff91909116815260200190565b60008219821115610c7657610c76610ccd565b500190565b600082821015610c8d57610c8d610ccd565b500390565b600281046001821680610ca657607f821691505b60208210811415610cc757634e487b7160e01b600052602260045260246000fd5b50919050565b634e487b7160e01b600052601160045260246000fdfea2646970667358221220f6dd3615491dde7b3e38abf1d8ddaec5804b1398a136ba8ba953d4f7a5f2434664736f6c63430008000033",
  "immutableReferences": {},
  "source": "// SPDX-License-Identifier: MIT\r\n\r\npragma solidity ^0.8.0;\r\n\r\nimport \"./ERC20.sol\";\r\n\r\n// mock class using ERC20\r\ncontract ERC20Mock is ERC20 {\r\n    constructor(\r\n        string memory name,\r\n        string memory symbol,\r\n        address initialAccount,\r\n        uint256 initialBalance\r\n    ) payable ERC20(name, symbol) {\r\n        _mint(initialAccount, initialBalance);\r\n    }\r\n\r\n    function mint(address account, uint256 amount) public {\r\n        _mint(account, amount);\r\n    }\r\n\r\n    function burn(address account, uint256 amount) public {\r\n        _burn(account, amount);\r\n    }\r\n\r\n    function transferInternal(\r\n        address from,\r\n        address to,\r\n        uint256 value\r\n    ) public {\r\n        _transfer(from, to, value);\r\n    }\r\n\r\n    function approveInternal(\r\n        address owner,\r\n        address spender,\r\n        uint256 value\r\n    ) public {\r\n        _approve(owner, spender, value);\r\n    }\r\n}",
  "sourcePath": "C:\\Users\\enriq\\Accenture\\smart-contracts\\contracts\\ERC20Mock.sol",
  "compiler": {
    "name": "solc",
    "version": "0.8.0+commit.c7dfd78e.Emscripten.clang"
  },
  "schemaVersion": "3.4.3",
  "updatedAt": "2021-08-29T17:36:07.572Z",
  "devdoc": {
    "kind": "dev",
    "methods": {
      "allowance(address,address)": {
        "details": "See {IERC20-allowance}."
      },
      "approve(address,uint256)": {
        "details": "See {IERC20-approve}. Requirements: - `spender` cannot be the zero address."
      },
      "balanceOf(address)": {
        "details": "See {IERC20-balanceOf}."
      },
      "decimals()": {
        "details": "Returns the number of decimals used to get its user representation. For example, if `decimals` equals `2`, a balance of `505` tokens should be displayed to a user as `5.05` (`505 / 10 ** 2`). Tokens usually opt for a value of 18, imitating the relationship between Ether and Wei. This is the value {ERC20} uses, unless this function is overridden; NOTE: This information is only used for _display_ purposes: it in no way affects any of the arithmetic of the contract, including {IERC20-balanceOf} and {IERC20-transfer}."
      },
      "decreaseAllowance(address,uint256)": {
        "details": "Atomically decreases the allowance granted to `spender` by the caller. This is an alternative to {approve} that can be used as a mitigation for problems described in {IERC20-approve}. Emits an {Approval} event indicating the updated allowance. Requirements: - `spender` cannot be the zero address. - `spender` must have allowance for the caller of at least `subtractedValue`."
      },
      "increaseAllowance(address,uint256)": {
        "details": "Atomically increases the allowance granted to `spender` by the caller. This is an alternative to {approve} that can be used as a mitigation for problems described in {IERC20-approve}. Emits an {Approval} event indicating the updated allowance. Requirements: - `spender` cannot be the zero address."
      },
      "name()": {
        "details": "Returns the name of the token."
      },
      "symbol()": {
        "details": "Returns the symbol of the token, usually a shorter version of the name."
      },
      "totalSupply()": {
        "details": "See {IERC20-totalSupply}."
      },
      "transfer(address,uint256)": {
        "details": "See {IERC20-transfer}. Requirements: - `recipient` cannot be the zero address. - the caller must have a balance of at least `amount`."
      },
      "transferFrom(address,address,uint256)": {
        "details": "See {IERC20-transferFrom}. Emits an {Approval} event indicating the updated allowance. This is not required by the EIP. See the note at the beginning of {ERC20}. Requirements: - `sender` and `recipient` cannot be the zero address. - `sender` must have a balance of at least `amount`. - the caller must have allowance for ``sender``'s tokens of at least `amount`."
      }
    },
    "version": 1
  },
  "userdoc": {
    "kind": "user",
    "methods": {},
    "version": 1
  }
}